:100000000C942A000C94E8020C9411030C943A030B
:100010000C9447000C9447000C94ED030C948B0651
:100020000C94C4030C949B030C9463030C9447003E
:100030000C9447000C9428040C9448040C948404F9
:100040000C94D3010C9447000C9447000C94470087
:100050000C94470011241FBECFE5D8E0DEBFCDBF12
:1000600010E0A0E6B0E0E0E8FEE102C005900D92ED
:10007000AC37B107D9F727E0ACE7B0E001C01D927B
:10008000A23AB207E1F70E94CE010C943E0F0C9405
:100090000000CF93C82F41E06091810080918200E1
:1000A0000E947202C4FB442740F960917F00809156
:1000B00083000E947202C5FB442740F960917E00D4
:1000C000809183000E947202C6FB442740F9609130
:1000D0007D00809183000E9472024C2F441F4427B0
:1000E000441F60917C00809183000E94720241E075
:1000F00060918000809182000E9472028FEC97E0F4
:100100000197F1F700C0000040E06091800080910D
:1001100082000E9472024C2F417060917F0080919A
:1001200083000E947202C1FB442740F960917E0067
:10013000809183000E947202C2FB442740F96091C3
:100140007D00809183000E947202C3FB442740F926
:1001500060917C00809183000E94720241E0609176
:100160008000809182000E9472028FEC97E00197DC
:10017000F1F700C0000040E06091800080918200B3
:100180000E9472028FE99FE00197F1F700C0000022
:10019000CF910895CF93C82F40E060918100809166
:1001A00082000E947202C4FB442740F960917F00E4
:1001B000809183000E947202C5FB442740F9609140
:1001C0007E00809183000E947202C6FB442740F9A2
:1001D00060917D00809183000E9472024C2F441F29
:1001E0004427441F60917C00809183000E9472022A
:1001F00041E060918000809182000E9472028FEC49
:1002000097E00197F1F700C0000040E060918000A6
:10021000809182000E947202809184008823B9F14B
:100220004C2F417060917F00809183000E94720288
:10023000C1FB442740F960917E00809183000E94B9
:100240007202C2FB442740F960917D0080918300D7
:100250000E947202C3FB442740F960917C008091A8
:1002600083000E94720241E06091800080918200D0
:100270000E9472028FEC97E00197F1F700C0000036
:1002800040E060918000809182000E9472028FE9BC
:100290009FE00197F1F700C00000CF910895AF9261
:1002A000CF92EF920F93CF93DF93C82FD62F642F67
:1002B00080938300D093820040938100209380003C
:1002C00000937F00E0927E00C0927D00A0927C00AF
:1002D00041E08D2F0E94FC0141E0609180008D2F54
:1002E0000E94FC0141E060917F008C2F0E94FC0184
:1002F00041E060917E008C2F0E94FC0141E0609102
:100300007D008C2F0E94FC0141E060917C008C2FCD
:100310000E94FC018FE59AEE0197F1F700C0000002
:1003200080E20E94CA0080E20E94CA0080E80E9427
:10033000CA008FEC97E00197F1F700C0000080E061
:100340000E94CA0080EC0E94CA008FEC97E00197DF
:10035000F1F700C0000080E00E94CA0080E10E9426
:10036000CA008FE99FE00197F1F700C0000081E02B
:1003700080938400DF91CF910F91EF90CF90AF9059
:100380000895CF93DF93EC0103C00E9449002196AA
:1003900088818111FACFDF91CF9108950E94E40EF8
:1003A00080E090E008951F920F920FB60F921124F3
:1003B0002F933F934F935F936F937F938F939F936D
:1003C000AF93BF93EF93FF93E0918500F091860088
:1003D000309709F00995FF91EF91BF91AF919F91EF
:1003E0008F917F916F915F914F913F912F910F90DE
:1003F0000FBE0F901F901895843008F072C06830BF
:1004000008F06FC04130A1F5813089F028F08230CA
:10041000C9F0833011F108952AB381E090E002C061
:10042000880F991F6A95E2F7822B8ABB089527B33C
:1004300081E090E002C0880F991F6A95E2F7822B55
:1004400087BB089524B381E090E002C0880F991F14
:100450006A95E2F7822B84BB089521B381E090E096
:1004600002C0880F991F6A95E2F7822B81BB08951D
:10047000411137C0813091F028F08230D9F08330BB
:1004800029F108952AB381E090E002C0880F991FF6
:100490006A95E2F7809582238ABB089527B381E0AD
:1004A00090E002C0880F991F6A95E2F78095822339
:1004B00087BB089524B381E090E002C0880F991FA4
:1004C0006A95E2F78095822384BB089521B381E089
:1004D00090E002C0880F991F6A95E2F78095822309
:1004E00081BB0895843008F072C0683008F06FC096
:1004F0004130A1F5813089F028F08230C9F0833095
:1005000011F108952BB381E090E002C0880F991F8C
:100510006A95E2F7822B8BBB089528B381E090E0C7
:1005200002C0880F991F6A95E2F7822B88BB089555
:1005300025B381E090E002C0880F991F6A95E2F729
:10054000822B85BB089522B381E090E002C0880F22
:10055000991F6A95E2F7822B82BB0895411137C03B
:10056000813091F028F08230D9F0833029F108955C
:100570002BB381E090E002C0880F991F6A95E2F7E3
:10058000809582238BBB089528B381E090E002C060
:10059000880F991F6A95E2F78095822388BB08959A
:1005A00025B381E090E002C0880F991F6A95E2F7B9
:1005B0008095822385BB089522B381E090E002C03C
:1005C000880F991F6A95E2F78095822382BB089570
:1005D0001F920F920FB60F9211242F933F934F93B8
:1005E0005F936F937F938F939F93AF93BF93EF939B
:1005F000FF93E0918B00F0918C00309709F0099502
:10060000FF91EF91BF91AF919F918F917F916F91EA
:100610005F914F913F912F910F900FBE0F901F90C0
:1006200018951F920F920FB60F9211242F933F939C
:100630004F935F936F937F938F939F93AF93BF93EA
:10064000EF93FF93E0918900F0918A00309709F0D1
:100650000995FF91EF91BF91AF919F918F917F91FC
:100660006F915F914F913F912F910F900FBE0F901F
:100670001F9018951F920F920FB60F9211242F936F
:100680003F934F935F936F937F938F939F93AF931A
:10069000BF93EF93FF93E0918700F091880030972C
:1006A00009F00995FF91EF91BF91AF919F918F91C3
:1006B0007F916F915F914F913F912F910F900FBE5E
:1006C0000F901F9018951F920F920FB60F92112442
:1006D0002F933F934F935F936F937F938F939F934A
:1006E000AF93BF93EF93FF9380918D0090918E0015
:1006F000019690938E0080938D00059759F4109287
:100700008E0010928D00E0918F00F0919000309754
:1007100009F00995FF91EF91BF91AF919F918F9152
:100720007F916F915F914F913F912F910F900FBEED
:100730000F901F9018951F920F920FB60F921124D1
:100740002F933F934F935F936F937F938F939F93D9
:10075000AF93BF93EF93FF93E0919500F0919600D4
:10076000309709F00995FF91EF91BF91AF919F915B
:100770008F917F916F915F914F913F912F910F904A
:100780000FBE0F901F9018951F920F920FB60F92E9
:1007900011242F933F934F935F936F937F938F9386
:1007A0009F93AF93BF93EF93FF93E0919300F091EA
:1007B0009400309709F00995FF91EF91BF91AF91A7
:1007C0009F918F917F916F915F914F913F912F9169
:1007D0000F900FBE0F901F9018951F920F920FB69B
:1007E0000F9211242F933F934F935F936F937F93B7
:1007F0008F939F93AF93BF93EF93FF93E0919100FB
:10080000F0919200309709F00995FF91EF91BF9117
:10081000AF919F918F917F916F915F914F913F9198
:100820002F910F900FBE0F901F901895813061F09F
:1008300018F0823029F008958AB18F778AB9089527
:100840008AB18F7B8AB908958AB18F7D8AB908955C
:100850001F920F920FB60F9211248F93EF93FF9375
:1008600080919900843660F4E0919900F0E08CB1B9
:10087000E250FF4F8083809199008F5F80939900B1
:10088000FF91EF918F910F900FBE0F901F901895D1
:100890001F920F920FB60F9211242F933F934F93F5
:1008A0005F936F937F938F939F93AF93BF93EF93D8
:1008B000FF939091980080919700981768F4E091C9
:1008C0009800F0E0E656FF4F80818CB98091980047
:1008D0008F5F8093980007C0109298001092970045
:1008E00081E00E941604FF91EF91BF91AF919F911B
:1008F0008F917F916F915F914F913F912F910F90C9
:100900000FBE0F901F9018951F920F920FB60F9267
:1009100011240F900FBE0F901F901895CF93DF9367
:10092000EC010E94390B8091620190916301892B47
:1009300031F487E691E09093630180936201209700
:10094000C9F080916401909165019E01280F391FC3
:100950002B3D45E0340788F48217930788F4C09153
:100960006201D0916301C80FD91F309365012093B4
:10097000640108C0C0E0D0E005C0C0E0D0E002C023
:10098000C0E0D0E00E94590CCE01DF91CF910895D4
:100990000895FC010396928381832FEF3FEF348308
:1009A0002383968385839087878310820895FC0133
:1009B000118610860895CF93DF93EB01488159810A
:1009C0004F3F2FEF520721F4FC01A781B0850DC0E6
:1009D000DC01139601C0DF011296ED91FC91139793
:1009E0002081318142175307B0F71296ED91FC91A7
:1009F0001397FB83EA83D583C483BD83AC831396AB
:100A0000DC93CE93129799878887FC0120812F5F12
:100A10002083DF91CF910895CF93DF93FC01A085D0
:100A2000B185C281D381848195819D838C83C4816A
:100A3000D581828193819B838A8311968D919C912C
:100A40001297E817F90731F48481958112969C93E7
:100A50008E931197118610868C9181508C938C9176
:100A6000DF91CF9108951BBC8BE08ABD8EBD89B705
:100A7000806189BF089531E1FC013083319722E222
:100A800020833197A3E3A0833197608331977083EC
:100A900031971082319760E86083319710823197E7
:100AA00062E06083319763E06083319764E0608344
:100AB000319765E06083319766E06083319767E046
:100AC0006083319768E06083319769E06083319794
:100AD00060E1608331973083319732E13083319721
:100AE00033E13083319734E13083319735E130831E
:100AF000319736E13083319737E13083319738E1F0
:100B00003083319739E13083319730E23083319748
:100B100031E2308331972083319723E2208331976C
:100B2000408331975083319726E22083319727E223
:100B30002083319728E22083319729E2208331975F
:100B400020E32083319721E32083869708950E9434
:100B50003305A0919E07B0919F07CD91CDBFDD9148
:100B6000DEBFFF91EF91DF91CF91BF91AF919F9148
:100B70008F917F916F915F914F913F912F911F9135
:100B80000F91FF90EF90DF90CF90BF90AF909F902C
:100B90008F907F906F905F904F903F902F901F901D
:100BA0000F900FBE0F90089581E008950F920FB639
:100BB000F8940F921F9211242F923F924F925F92BE
:100BC0006F927F928F929F92AF92BF92CF92DF925D
:100BD000EF92FF920F931F932F933F934F935F9347
:100BE0006F937F938F939F93AF93BF93CF93DF9335
:100BF000EF93FF93A0919E07B0919F070DB60D92C2
:100C00000EB60D920E94440DA0919E07B0919F07D1
:100C1000CD91CDBFDD91DEBFFF91EF91DF91CF91FF
:100C2000BF91AF919F918F917F916F915F914F9104
:100C30003F912F911F910F91FF90EF90DF90CF90F8
:100C4000BF90AF909F908F907F906F905F904F90EC
:100C50003F902F901F900F900FBE0F9008950F920E
:100C60000FB6F8940F921F9211242F923F924F9239
:100C70005F926F927F928F929F92AF92BF92CF922C
:100C8000DF92EF92FF920F931F932F933F934F9317
:100C90005F936F937F938F939F93AF93BF93CF9304
:100CA000DF93EF93FF93A0919E07B0919F070DB63E
:100CB0000D920EB60D920E943F0B81110E94440DC1
:100CC000A0919E07B0919F07CD91CDBFDD91DEBF72
:100CD000FF91EF91DF91CF91BF91AF919F918F9154
:100CE0007F916F915F914F913F912F911F910F9144
:100CF000FF90EF90DF90CF90BF90AF909F908F903C
:100D00007F906F905F904F903F902F901F900F902B
:100D10000FBE0F9008950E942F0618950FB6F894F5
:100D20000F92FC01828D811102C081E001C080E040
:100D30000F900FBE08950FB6F8940F92FC01228D0C
:100D4000838D281302C081E001C080E00F900FBEA8
:100D500008950F931F93CF93DF93EC01042F1A8D07
:100D60004C8D4423B9F1011116C050E08A819B815A
:100D70000E94350F2C8D8A819B81820F911D9B8350
:100D80008A832C813D818217930720F18881998184
:100D90009B838A831FC050E08E819F810E94350F04
:100DA0008C8D90E09195819591092E813F81280F3E
:100DB000391F3F832E83488159812417350730F42A
:100DC0002C813D81820F931F9F838E83023011F40B
:100DD000111111501F5F1A8F80E0DF91CF911F9189
:100DE0000F9108951F93CF93DF93EC010FB6F89402
:100DF0000F921E8D0BC08989882351F0CE01419638
:100E00000E94AA0D81110E94A40E115011169CF38C
:100E10008FEF8E8F0F900FBE0FB6F8940F921D8D2F
:100E20000BC08885882351F0CE0108960E94AA0D38
:100E300081110E94A40E115011169CF38FEF8D8F1B
:100E40000F900FBEDF91CF911F9108950F931F93C5
:100E5000CF93DF93FC01362F892B09F44DC0238DEE
:100E6000222309F44BC0022F10E08FEF9FEFB8014F
:100E70000E94210F448D842F90E06817790708F4B1
:100E80003FC0EF010FB6F8940F9260817181FB01B2
:100E9000249FE00DF11D1124FD83EC831A8E7B83CA
:100EA0006A8301501109809FA001819F500D909F7E
:100EB000500D1124CB01840F951F9F838E838FEFDC
:100EC0008D8F8E8F31110CC08885882389F0CE01DB
:100ED00008960E94AA0D882359F00E94D60508C0E2
:100EE000CE0108960E94C904CE0141960E94C90411
:100EF0000F900FBE81E005C080E003C080E001C01C
:100F000080E0DF91CF911F910F9108950F931F9370
:100F1000F801611103C01183008302C05183408333
:100F2000838F648F61E0CF010E9426071F910F918C
:100F30000895DF92EF92FF920F931F93CF93DF9369
:100F4000382FE62F882329F1682F70E08FEF9FEF6D
:100F50000E94210F8E2F90E068177907E8F03E9FDE
:100F6000C0011124813E2FEF9207C8F4D42EDE2F4A
:100F7000C32F4F960E948E047C01009791F08C0144
:100F80002D2DAC01415E5F4F6D2F8C2F0E94860787
:100F900008C0E12CF12C05C0E12CF12C02C0E12CA1
:100FA000F12CC701DF91CF911F910F91FF90EF902E
:100FB000DF900895CF92DF92EF92FF920F931F93ED
:100FC000CF93DF9300D000D01F92CDB7DEB78C0156
:100FD0007B015D834C83C22ED12C0FB6F8940F9207
:100FE000F801928D838D981718F0F2E0CF1219C096
:100FF0004C2DB701C8010E94A906F80191899923D7
:1010000049F0C80141960E94AA0D882331F00E9440
:10101000D60503C081110E94D6050F900FBE81E056
:101020004DC08C819D81892B21F40F900FBE80E0F3
:1010300045C0D11006C0CE0101960E94670EDD2486
:10104000D3940F900FBE0E94390B0FB6F8940F92F5
:10105000F801858D8F3F09F4158EF801868D8F3F3D
:1010600009F4168E0F900FBEBE016C5F7F4FCE014C
:1010700001960E94720E81111BC0C8010E949B063E
:10108000882381F06C817D81C80108960E94980DAB
:10109000C8010E94F2060E94590C81119ECF0E9445
:1010A000D6059BCFC8010E94F2060E94590C95CF2D
:1010B000C8010E94F2060E94590C80E00F900F9028
:1010C0000F900F900F90DF91CF911F910F91FF9094
:1010D000EF90DF90CF900895FF920F931F93CF93DF
:1010E000DF9300D000D01F92CDB7DEB78C017D8397
:1010F0006C83F12C0FB6F8940F92F801828D88233F
:1011000081F08150828F8085882339F0C80108964C
:101110000E94AA0D81110E94D6050F900FBE81E09A
:1011200053C08C819D81892B21F40F900FBE80E0EC
:101130004BC0F11006C0CE0101960E94670EFF243D
:10114000F3940F900FBE0E94390B0FB6F8940F92D4
:10115000F801858D8F3F09F4158EF801868D8F3F3C
:1011600009F4168E0F900FBEBE016C5F7F4FCE014B
:1011700001960E94720E81111BC0C8010E948E064A
:10118000882381F06C817D81C80141960E94980D71
:10119000C8010E94F2060E94590C8111ABCF0E9437
:1011A000D605A8CFC8010E94F2060E94590CA2CF12
:1011B000C8010E94F2060E94590CC8010E948E06C6
:1011C000882309F497CF80E00F900F900F900F9035
:1011D0000F90DF91CF911F910F91FF900895E091B3
:1011E0006607F09167078081811107C08FEF9FEF3D
:1011F00090934607809345070895E0916607F09124
:1012000067070580F681E02D8081918190934607E4
:10121000809345070895CF93DF93EC018F89988DD4
:101220000E94C804CE010E94C804DF91CF910895A6
:101230006F927F928F929F92AF92BF92CF92DF92E6
:10124000EF920F931F93CF93DF93CDB7DEB74C018F
:10125000D50157968D919C915897215031093C01A9
:10126000620E731E6115710589F416C0822F90E01D
:10127000FB01E80FF91F3081D501A80FB91F59965E
:101280003C938081882329F02F5F01C020E0283023
:1012900068F3F50110A203C0D50159961C92B3E082
:1012A000BE1520F40F2EF3E0EF2EF02DF501E68AA7
:1012B000C50102960E94D704C5010C960E94D7046E
:1012C000D5011996BC92AE92189784E090E08E19E1
:1012D00091091D969C938E931C975396BC92AE9247
:1012E000529784E0F501B196DF011D928A95E9F7E6
:1012F000F50115A2A801B401C3010E943B05D50167
:101300008D939C93C114D10419F0F601B182A0828F
:10131000DF91CF911F910F91EF90DF90CF90BF9011
:10132000AF909F908F907F906F900895CF93C0E083
:1013300010C08C2F90E09C01220F331F220F331F0F
:10134000220F331F820F931F8658984F0E94C904A3
:10135000CF5FC43070F381E797E00E94C90488E64C
:1013600097E00E94C9048BE597E00E94C90482E5DA
:1013700097E00E94C90481E797E090936707809304
:10138000660788E697E09093650780936407CF919E
:101390000895CF93DF93EC010FB6F8940F928091EC
:1013A00050078F5F8093500780919E0790919F0711
:1013B000892B59F4D0939F07C0939E0780915007C3
:1013C000813099F40E94960910C080914C078111D8
:1013D0000CC0E0919E07F0919F0796898E8989172E
:1013E00020F0D0939F07C0939E07809147078F5F9F
:1013F000809347078E8990914D07981710F480933A
:101400004D0790E0FC01EE0FFF1FEE0FFF1FEE0FE8
:10141000FF1F8E0F9F1FFC01E658F84F0180F281DD
:10142000E02DFD83EC83848195819F838E83A4814D
:10143000B581CE01029613969C938E931297958355
:101440008483EE89F0E0CF01880F991F880F991FE0
:10145000880F991FE80FF91FE658F84FFB87EA87B6
:1014600080818F5F80830F900FBE80914C0788230F
:1014700051F0E0919E07F0919F0796898E89981709
:1014800010F40E94D605DF91CF910895CF93DF939A
:101490001CC00FB6F8940F92E0915707F0915807CF
:1014A000C681D781CE0102960E940C05809150071B
:1014B000815080935007809151078150809351074C
:1014C0000F900FBECE010E940B0980915107811130
:1014D000E0CFDF91CF9108950E94460A80917A076C
:1014E0008230D0F30E94D605F7CF0F931F93CF938E
:1014F000DF93EC0100914E0710914F0780919E07FA
:1015000090919F0702960E940C05C00FD11FE09199
:101510009E07F0919F07D383C283C017D10768F459
:1015200060919E0770919F07809164079091650775
:101530006E5F7F4F0E94DB0417C060919E07709121
:101540009F0780916607909167076E5F7F4F0E94AB
:10155000DB048091450790914607C817D90720F40E
:10156000D0934607C0934507DF91CF911F910F910C
:1015700008952F923F924F925F926F927F928F9237
:101580009F92AF92BF92CF92DF92EF92FF920F9312
:101590001F93CF93DF933C011B015A012901CA011C
:1015A0000E948E046C01892B71F086E290E00E940B
:1015B0008E04EC01892B19F0D88ECF8A06C0C601A3
:1015C0000E94C80402C0C0E0D0E0209791F09501CD
:1015D00040E050E0812C912C5E016701E02E8201F9
:1015E000B101C3010E941809CE010E94C90981E01E
:1015F00001C08FEFDF91CF911F910F91FF90EF907E
:10160000DF90CF90BF90AF909F908F907F906F9022
:101610005F904F903F902F900895EF92FF920F931D
:101620000F2EF3E4EF2EF7E0FF2EF02D00E020E088
:1016300030E045E550E061E670E08CE69AE00E941B
:10164000B90A813081F4F8948FEF9FEF90934607A9
:101650008093450781E080934C0710924F071092CA
:101660004E070E94A705809160000F91FF90EF90B8
:101670000895809142078F5F8093420708950F93EA
:101680001F93CF93DF9380914207811101C1C091D5
:101690004E07D0914F078E010F5F1F4F10934F07DA
:1016A00000934E0701151105B9F4809166079091DA
:1016B000670720916407309165073093670720938F
:1016C00066079093650780936407809148078F5F52
:1016D000809348070E94EF08809145079091460744
:1016E0000817190720F480E0B8C081E001C080E04D
:1016F000E0916607F09167079081911107C02FEF85
:101700003FEF3093460720934507A7C0E091660757
:10171000F09167070580F681E02D0680F781E02DC6
:10172000228133810217130728F430934607209350
:10173000450793C0A285B3852481358146815781B1
:10174000E9015D834C832681378144815581E9011C
:101750005B834A8311962D913C911297AF014E5FA6
:101760005F4F2417350731F42681378112963C9359
:101770002E931197138612869C9191509C93A48965
:10178000B589109719F12685378560897189E90136
:101790007D836C832089318966857785E9017B8328
:1017A0006A8311966D917C9112979F01245F3F4F40
:1017B0006217730731F42089318912963C932E9376
:1017C0001197158A148A9C9191509C932689909127
:1017D0004D07921710F420934D0730E0D901AA0F5E
:1017E000BB1FAA0FBB1FAA0FBB1F2A0F3B1FD9018C
:1017F000A658B84F11960D90BC91A02DB583A48327
:1018000014962D913C9115973783268314962D912C
:101810003C911597E9015B834A8315965C934E933F
:101820001497A689B0E09D01220F331F220F331FAA
:10183000220F331FA20FB31FA658B84FB387A2873A
:101840009C919F5F9C932689E0919E07F0919F0752
:101850009689291708F049CF4BCFE0919E07F09168
:101860009F07268930E0F901EE0FFF1FEE0FFF1FE3
:10187000EE0FFF1F2E0F3F1FF901E658F84F908122
:10188000923008F081E09091490791110CC00CC092
:1018900080914A0790914B07019690934B07809354
:1018A0004A0780E001C081E0DF91CF911F910F9145
:1018B0000895CF93DF930FB6F8940F92809142076B
:1018C000815080934207809142078111BFC080916F
:1018D0005007811196C0BDC0E0916007F09161078B
:1018E0000680F781E02DA489B589C685D7858089D2
:1018F00091899D838C83C089D189868597859B83B7
:101900008A8311962D913C911297CF010C9628173E
:10191000390731F48089918912969C938E9311979F
:10192000158A148A8C9181508C93A285B385C481C9
:10193000D581868197819D838C83C681D78184815F
:1019400095819B838A8311968D919C9112979F011B
:101950002E5F3F4F8217930731F48681978112964D
:101960009C938E931197138612868C9181508C9341
:10197000868990914D07981710F480934D0790E059
:10198000DC01AA0FBB1FAA0FBB1FAA0FBB1F8A0F28
:101990009B1FDC01A658B84F11960D90BC91A02D4D
:1019A000B583A48314968D919C9115979783868314
:1019B0001496CD91DC9115973B832A8315963C9321
:1019C0002E931497A689B0E0CD01880F991F880F38
:1019D000991F880F991FA80FB91FA658B84FB38732
:1019E000A2878C918F5F8C939689A0919E07B0916E
:1019F0009F0756968C91981730F081E080934907A5
:101A000002C0E0E0F0E080915B07811165CFEF2B31
:101A100011F00E94EF08C0914A07D0914B07209720
:101A200069F00E943F0B882319F081E080934907F9
:101A30002197B9F710924B0710924A0780914907F6
:101A4000882331F00E94D60581E003C080E001C008
:101A500080E00F900FBEDF91CF910895CF93DF9379
:101A6000EC01892B49F00E94390B60E0CE010E9405
:101A7000750A0E94590C01C080E0811102C00E94C9
:101A8000D605DF91CF91089580914207882321F0F8
:101A900081E08093490708951092490720914D07EE
:101AA00001C02150822F90E0FC01EE0FFF1FEE0FCE
:101AB000FF1FEE0FFF1FE80FF91FE658F84F3081A8
:101AC000332379F3AC01440F551F440F551F440FC6
:101AD000551F480F591FDF010180F281E02D028060
:101AE000F381E02D1296FC93EE9311974358584FD3
:101AF000E417F50729F442815381FD0152834183A4
:101B0000FC01EE0FFF1FEE0FFF1FEE0FFF1F8E0FEA
:101B10009F1FFC01E658F84F0180F281E02D86817D
:101B2000978190939F0780939E0720934D07089578
:101B3000CF93DF93EB0160919E0770919F07645FE5
:101B40007F4F0E94DB0461E0CE010E94750ADF91A5
:101B5000CF910895CF93DF93DC011596ED91FC9121
:101B600016970680F781E02DA489B589C685D785AB
:101B7000808991899D838C83C089D1898685978549
:101B80009B838A8311968D919C9112979F01245F6C
:101B90003F4F8217930731F48089918912969C9365
:101BA0008E931197158A148A8C9181508C93809111
:101BB0004207811160C0A285B385C481D581868129
:101BC00097819D838C83C681D781848195819B83F6
:101BD0008A8311968D919C9112979F012E5F3F4FA2
:101BE0008217930731F48681978112969C938E9386
:101BF0001197138612868C9181508C9386899091CF
:101C00004D07981710F480934D0790E0DC01AA0F60
:101C1000BB1FAA0FBB1FAA0FBB1F8A0F9B1FDC0194
:101C2000A658B84F11960D90BC91A02DB583A483F2
:101C300014968D919C911597978386831496CD91D8
:101C4000DC9115973B832A8315963C932E9314972A
:101C5000A689B0E0CD01880F991F880F991F880FC2
:101C6000991FA80FB91FA658B84FB387A2878C91A8
:101C70008F5F8C931CC04BE557E0DA011196CD9134
:101C8000DC911297D787C6878C819D81918B808B41
:101C90008C819D81DC0113963C932E9312973D839A
:101CA0002C83558B448BDA018C918F5F8C939689B2
:101CB000E0919E07F0919F078689891720F481E0C3
:101CC0008093490701C080E0DF91CF910895209172
:101CD0004807FC01208320914E0730914F07328343
:101CE00021830895CF93DF930FB6F8940F9240911C
:101CF0004E0750914F07EC0129813A81DA01A21B6E
:101D0000B30BF881E0914807FE1741F042175307E3
:101D100028F0FB011182108281E011C0EB012881C3
:101D20003981A217B30740F42A1B3B0B3983288360
:101D30000E94670E80E003C01982188281E00F9034
:101D40000FBEDF91CF91089581E0809349070895F8
:101D50006FEF7FEF8091A0079091A1070E946C0820
:101D60008130B1F786E690E00E94C10120E040E0BA
:101D700050E060E070E08091A0079091A1070E9480
:101D8000DA0788EE93E00E942E0DE2CF6FEF7FEF2F
:101D90008091A0079091A1070E946C088130B1F753
:101DA00081E790E00E94C10120E040E050E060E067
:101DB00070E08091A0079091A1070E94DA0788EE59
:101DC00093E00E942E0DE2CF6BB38BB30F2EF5E0A4
:101DD000AF2EF02D6894CC24C2F80F2EF3E0EF2E36
:101DE000F02D02E021E040E00E944F01E12CF12CB7
:101DF00020E030E048EC50E060E070E088EA9EE0EF
:101E00000E94B90A20E030E048EC50E060E070E069
:101E100086EC9EE00E94B90A43E060E081E00E9407
:101E200099079093A1078093A007009739F020E0CD
:101E300040E050E060E070E00E94DA070E940D0B85
:101E4000FFCFAA1BBB1B51E107C0AA1FBB1FA617D0
:101E5000B70710F0A61BB70B881F991F5A95A9F753
:101E600080959095BC01CD010895FB01DC0102C075
:101E700001900D9241505040D8F70895F894FFCF4B
:101E80000349444C450049276D205461736B203150
:0C1E90000049276D205461736B20320064
:00000001FF
